:100000000C946B000C9493000C9493000C9493004C
:100010000C9493000C9493000C9493000C94930014
:100020000C9493000C9493000C9493000C94930004
:100030000C9493000C9493000C9493000C949300F4
:100040000C9499280C9493000C943A240C948824D2
:100050000C9493000C9493000C9493000C949300D4
:100060000C9495190C9493000000000024002700C4
:100070002A0000000000250028002B0000000000DE
:1000800023002600290004040404040404040202DA
:100090000202020203030303030301020408102007
:1000A0004080010204081020010204081020000012
:1000B0000007000201000003040600000000000029
:1000C000000018011C0C020EFA0FD3113118571B37
:1000D0007B21F425562611241FBECFEFD8E0DEBFCA
:1000E000CDBF13E0A0E0B1E0EEEEF5E502C0059073
:1000F0000D92AA30B107D9F716E0AAE0B3E001C02B
:100100001D92AE3BB107E1F710E0C6EDD0E004C0B0
:100110002297FE010E94BA2AC23CD107C9F70E9469
:10012000CF260C94F52A0C940000A0E0B0E0EBE997
:10013000F0E00C94C62AEC01A880B980CA80DB806C
:10014000A114B104C104D10441F484E2A82E89EDC4
:10015000B82E8BE5C82E87E0D82EC601B5012DE15B
:1001600033EF41E050E00E949D2A27EA31E440E06D
:1001700050E00E945C2A7B018C01C601B5012DE193
:1001800033EF41E050E00E949D2ACA01B9012CEEF4
:1001900034EF4FEF5FEF0E945C2A6E0D7F1D801FD2
:1001A000911F97FF04C06150704080409048688361
:1001B00079838A839B839B01AC015F77B901CA0174
:1001C000CDB7DEB7EAE00C94E22A0E9495000895CC
:1001D00081E991E00E9495000895609391017093E8
:1001E000920180939301909394010895FB01DC01A7
:1001F00004C08D910190801921F441505040C8F7FE
:10020000881B990B0895FB01DC0101900D920020E1
:10021000E1F70895EAE0F3E080E02AE004C0829F7D
:10022000802D1124890F919190539A30C0F3089535
:100230000F938EE894E060E040E020E000E00E9450
:100240004A2680E194E060EC48EA21E002E80E945E
:100250004A2686E194E060EC48EA21E001E00E9451
:100260004A268CE194E06FEF4FEF2FEF00E00E9401
:100270004A26609195017091960182E294E00E9475
:10028000D80F0F9108950F931F9302E214E0C80155
:1002900060E070E04AE050E00E945128C8016AE343
:1002A0000E941627C80163E070E04AE050E00E9417
:1002B0005128C8016AE00E9416271F910F910895E6
:1002C000CF93DF9382E294E060E070E04AE050E098
:1002D0000E94512882E294E06AE30E941627CAE055
:1002E000D4E082E294E069914AE050E00E94FF2766
:1002F00084E0C031D807A9F782E294E06AE00E9466
:1003000016278DE896E060E071E00E948628DF9174
:10031000CF91089582E294E064E071E00E94832826
:1003200064EF71E080E090E00E94152928E088E108
:1003300090E00FB6F894A895809360000FBE2093CC
:100340006000FFCFDF92EF92FF920F931F93CF9346
:10035000DF9320E030E00DC01192019680319105CD
:10036000D9F72F5F3F4F2031310519F400E010E03D
:1003700064C0F90184E0EE0FFF1F8A95E1F7E65FA4
:10038000FC4F80E090E0E8CF6081EC01C45DDB4F82
:100390002881621789F02A3379F08DE896E00E946F
:1003A00016278DE896E060E20E9416278DE896E019
:1003B00068810E943E273CC08E159F0539F48DE868
:1003C00096E067E071E00E94862848C03196019669
:1003D0002A3351F59C01EC01C45DDB4FA0E0B0E095
:1003E00061E070E041E050E01BC0D8808AE3D8169D
:1003F00019F411966F5F7F4FCA01861B970BFD01A1
:10040000E295F295F07FFE27E07FFE27E80FF91FC7
:10041000E65FFC4FD0822F5F3F4F4F5F5F4F2196CB
:10042000E216F30614F71AC0E816F9060CF0ACCF82
:100430000F5F1F4F0031110579F080914C04E82EB9
:10044000FF24F80184E0EE0FFF1F8A95E1F7E656DE
:10045000FE4F80E090E098CF0FEF10E0C801DF91F1
:10046000CF911F910F91FF90EF90DF900895CF9261
:10047000DF92EF92FF920F931F93CF93DF939C0134
:10048000C62E8FE795E0B90145E050E00E94CD18F7
:1004900029E288E190E00FB6F894A8958093600077
:1004A0000FBE20936000EE24FF248701DD24CC2DB5
:1004B000D0E0A0971DC08FE795E00E940A18282F72
:1004C00084E0D81661F4822F90E08C179D07F1F03C
:1004D0002C1529F4EE24EA94FE2C870117C0102F66
:1004E0000F2DFE2CEE24E20EF11C011D111DD394E4
:1004F0008FE795E00E940118892BE9F688E10FB695
:10050000F89480936000109260000FBEB701C8019C
:10051000DF91CF911F910F91FF90EF90DF90CF90DF
:100520000895FF920F931F939C01F62E0FE715E09D
:10053000C801B9010E94F717C8016F2D0E947918F0
:10054000C8010E94BC1864E670E080E090E00E9460
:1005500015291F910F91FF9008950F931F930E94EB
:100560000A01082F10E0085F1F4FC80163E70E94CF
:10057000910264E670E080E090E00E941529C801D5
:1005800063E70E943702603020E0720720E08207B4
:1005900021E0920741F0603020E0720721E08207FD
:1005A00020E0920729F482E294E060E070E018C055
:1005B000611571058105910529F482E294E061E0FD
:1005C00070E00EC06F5F7F4F8F4F9F4F29F482E224
:1005D00094E062E070E004C082E294E063E070E0E6
:1005E0004AE050E00E94512882E294E06AE00E94D2
:1005F00016271F910F9108950F931F930E940A01D0
:10060000082F10E0085F1F4FC80163E70E949102A6
:1006100064E670E080E090E00E941529C80163E77D
:100620000E943702603020E0720721E0820720E05C
:10063000920729F482E294E060E070E018C061154E
:1006400071058105910529F482E294E061E070E092
:100650000EC06F5F7F4F8F4F9F4F29F482E294E06F
:1006600062E070E004C082E294E063E070E04AE09F
:1006700050E00E94512882E294E06AE00E9416272E
:100680001F910F9108950F931F930E940A01082F45
:1006900010E0085F1F4FC80163E70E94910264E603
:1006A00070E080E090E00E941529C80163E70E9495
:1006B0003702603020E0720720E0820721E09207D5
:1006C00029F482E294E060E070E018C061157105E1
:1006D0008105910529F482E294E061E070E00EC0AA
:1006E0006F5F7F4F8F4F9F4F29F482E294E062E06B
:1006F00070E004C082E294E063E070E04AE050E021
:100700000E94512882E294E06AE00E9416271F911D
:100710000F910895DF92EF92FF920F931F93CF9363
:10072000DF9310929701C0E0D0E00CC0CE01089694
:1007300063E70E94910264E670E080E090E00E942E
:100740001529219680914D0490E0C817D90774F3BC
:1007500064E670E080E090E00E9415292EE4E22E2D
:1007600024E0F22E8701C0E0D0E0DD24D39431C034
:10077000CE01089663E70E9437029B01AC01F801A5
:100780006083718382839383DC01CB010197A1098C
:10079000B1098E5F9F4FAF4FBF4F30F480919701EB
:1007A000882311F410929701211531054105510557
:1007B00029F02F5F3F4F4F4F5F4F11F4D0929701B9
:1007C00064E670E080E090E00E94152921960C5FBD
:1007D0001F4F80914D0490E0C817D9074CF282E278
:1007E00094E0609197014AE050E00E94FF2782E286
:1007F00094E06AE30E94162782E294E060914D043F
:100800004AE050E00E94FF27C0E0D0E074C0F7014A
:1008100080819181A281B3810197A109B1098E5F85
:100820009F4FAF4FBF4FD8F482E294E06AE30E943B
:10083000162782E294E060E070E04AE050E00E9417
:10084000512882E294E06AE30E941627F701608152
:10085000660F82E294E04AE050E00E94FF27F70131
:1008600080819181A281B3810097A105B105D1F466
:1008700082E294E06AE30E94162782E294E061E05B
:1008800070E04AE050E00E94512882E294E06AE37E
:100890000E94162782E294E061E070E04AE050E0B6
:1008A0000E945128F70180819181A281B3818F5FDD
:1008B0009F4FAF4FBF4FD1F482E294E06AE30E94B2
:1008C000162782E294E062E070E04AE050E00E9485
:1008D000512882E294E06AE30E94162782E294E0C3
:1008E00062E070E04AE050E00E945128219684E0E6
:1008F00090E0E80EF91E80914D0490E0C817D907EA
:100900000CF485CF82E294E06AE00E941627DF9122
:10091000CF911F910F91FF90EF90DF900895EF928C
:10092000FF920F931F930E940A01082F10E0085FA7
:100930001F4FC80163E70E94910264E670E080E007
:1009400090E00E941529C80163E70E9437027B01ED
:100950008C01DC01CB010197A109B1098E5F9F4F8A
:10096000AF4FBF4FD0F482E294E060E070E04AE025
:1009700050E00E94512882E294E06AE30E94162728
:100980006E2D660F82E294E04AE050E00E94FF275D
:1009900082E294E06AE00E941627E114F104010566
:1009A000110529F482E294E061E070E00DC08FEF60
:1009B000E8168FEFF8068FEF08078FEF1807D1F4CE
:1009C00082E294E062E070E04AE050E00E94512848
:1009D00082E294E06AE30E94162782E294E063E0F8
:1009E00070E04AE050E00E94512882E294E06AE020
:1009F0000E9416271F910F91FF90EF900895CF92BC
:100A0000DF92EF92FF920F931F93CF93DF93109299
:100A10009701C0E0D0E00CC0CE01089663E60E94CA
:100A2000910264E670E080E090E00E941529219632
:100A300080914D0490E0C817D90774F360E47FE11A
:100A400080E090E00E9415290EE414E07801C0E0F7
:100A5000D0E03AE0C32EDD24D3943AC0CE0108960C
:100A600063E60E9437029B01AC01F701608371834A
:100A70008283938380919701882341F4213031054B
:100A80004105510519F41092970117C02115310540
:100A90004105510541F02F3FFFEF3F07FFEF4F07A3
:100AA000FFEF5F0719F4D092970107C0223031059C
:100AB0004105510511F4C092970164E670E080E0B1
:100AC00090E00E941529219684E090E0E80EF91E3E
:100AD00080914D0490E0C817D9070CF4BFCF82E293
:100AE00094E0609197014AE050E00E94FF2782E283
:100AF00094E06AE30E94162782E294E060914D043C
:100B00004AE050E00E94FF27C0E0D0E05EC0F8015C
:100B100080819181A281B38180509040A040B140FA
:100B200069F482E294E06AE30E94162782E294E08C
:100B300060E070E04AE050E00E945128F8018081B6
:100B40009181A281B3810097A105B10569F482E288
:100B500094E06AE30E94162782E294E061E070E08C
:100B60004AE050E00E945128F80180819181A281E1
:100B7000B3818F5F9F4FAF4FBF4F69F482E294E024
:100B80006AE30E94162782E294E062E070E04AE0A5
:100B900050E00E945128F80180819181A281B381A7
:100BA00080509040A040B24069F482E294E06AE351
:100BB0000E94162782E294E06AE070E04AE050E08A
:100BC0000E94512821960C5F1F4F80914D0490E0A8
:100BD000C817D9070CF49BCF82E294E06AE00E9428
:100BE0001627DF91CF911F910F91FF90EF90DF902B
:100BF000CF9008950F931F930E940A01082F10E0D1
:100C0000085F1F4FC80163E60E94910260E47FE124
:100C100080E090E00E941529C80163E60E94370237
:100C2000603020E0720720E0820721E0920729F47B
:100C300082E294E060E070E020C0611571058105FA
:100C4000910529F482E294E061E070E016C06F3F04
:100C50002FEF72072FEF82072FEF920729F482E21E
:100C600094E062E070E009C06050704080409240C3
:100C700069F482E294E06AE070E04AE050E00E94A9
:100C8000512882E294E06AE00E9416271F910F919A
:100C90000895CF92DF92EF92FF920F931F93CF931D
:100CA000DF9310929701C0E0D0E00CC0CE0108960F
:100CB0006FE60E94910264E670E080E090E00E949E
:100CC0001529219680914D0490E0C817D90774F337
:100CD00060E47FE180E090E00E9415290EE414E0DA
:100CE0007801C0E0D0E04AE0C42EDD24D3943AC0BD
:100CF000CE0108966FE60E9437029B01AC01F70116
:100D0000608371838283938380919701882341F468
:100D1000213031054105510519F41092970117C092
:100D2000211531054105510541F02F3FFFEF3F07E8
:100D3000FFEF4F07FFEF5F0719F4D092970107C04D
:100D4000223031054105510511F4C092970164E646
:100D500070E080E090E00E941529219684E090E008
:100D6000E80EF91E80914D0490E0C817D9070CF4E5
:100D7000BFCF82E294E0609197014AE050E00E9488
:100D8000FF2782E294E06AE30E94162782E294E061
:100D900060914D044AE050E00E94FF27C0E0D0E09F
:100DA0005EC0F80180819181A281B3818050904022
:100DB000A040B14069F482E294E06AE30E94162701
:100DC00082E294E060E070E04AE050E00E94512846
:100DD000F80180819181A281B3810097A105B105BD
:100DE00069F482E294E06AE30E94162782E294E0CA
:100DF00061E070E04AE050E00E945128F8018081F3
:100E00009181A281B3818F5F9F4FAF4FBF4F69F434
:100E100082E294E06AE30E94162782E294E062E0B4
:100E200070E04AE050E00E945128F80180819181F1
:100E3000A281B38180509040A040B24069F482E228
:100E400094E06AE30E94162782E294E06AE070E090
:100E50004AE050E00E94512821960C5F1F4F80917C
:100E60004D0490E0C817D9070CF49BCF82E294E0C0
:100E70006AE00E941627DF91CF911F910F91FF909A
:100E8000EF90DF90CF9008950F931F930E940A0177
:100E9000082F10E0085F1F4FC8016FE60E94910203
:100EA00060E47FE180E090E00E941529C8016FE6D0
:100EB0000E943702603020E0720720E0820721E0C4
:100EC000920729F482E294E060E070E020C06115AE
:100ED00071058105910529F482E294E061E070E0FA
:100EE00016C06F3F2FEF72072FEF82072FEF920789
:100EF00029F482E294E062E070E009C06050704042
:100F00008040924069F482E294E06AE070E04AE056
:100F100050E00E94512882E294E06AE00E94162785
:100F20001F910F910895DF92EF92FF920F931F93FD
:100F3000CF93DF9310929701C0E0D0E00CC0CE01B8
:100F4000089669E60E94910264E670E080E090E015
:100F50000E941529219680914D0490E0C817D90769
:100F600074F30EE414E07801C0E0D0E0DD24D39403
:100F700033C0CE01089669E60E9437029B01AC019E
:100F8000F7016083718382839383DC01CB01019736
:100F9000A109B1098E5F9F4FAF4FBF4F30F48091D1
:100FA0009701882311F4109297012115310541050D
:100FB000510529F02F5F3F4F4F4F5F4F11F4D092F3
:100FC000970164E670E080E090E00E941529219688
:100FD00084E090E0E80EF91E80914D0490E0C8177F
:100FE000D9073CF282E294E0609197014AE050E038
:100FF0000E94FF2782E294E06AE30E94162782E2C1
:1010000094E060914D044AE050E00E94FF27C0E068
:10101000D0E07AC0F80180819181A281B3810197EB
:10102000A109B1098E5F9F4FAF4FBF4FE8F482E235
:1010300094E06AE30E94162782E294E060E070E0A8
:101040004AE050E00E94512882E294E06AE30E9464
:101050001627F801408151816281738182E294E018
:101060002AE030E00E94F027F80180819181A2817E
:10107000B3810097A105B105E9F482E294E06AE347
:101080000E94162782E294E061E070E04AE050E0BE
:101090000E94512882E294E06AE30E941627F80138
:1010A000408151816281738182E294E02AE030E0E4
:1010B0000E94F027F80180819181A281B3818F5F26
:1010C0009F4FAF4FBF4FE9F482E294E06AE30E9482
:1010D000162782E294E062E070E04AE050E00E946D
:1010E000512882E294E06AE30E941627F8014081C9
:1010F00051816281738182E294E02AE030E00E94B3
:10110000F02721960C5F1F4F80914D0490E0C81787
:10111000D9070CF47FCF82E294E06AE00E941627A0
:10112000DF91CF911F910F91FF90EF90DF90089585
:10113000EF92FF920F931F930E940A01082F10E075
:10114000085F1F4FC80169E60E94910264E670E0E3
:1011500080E090E00E941529C80169E60E943702EC
:101160007B018C01DC01CB010197A109B1098E5FE4
:101170009F4FAF4FBF4FD0F482E294E060E070E049
:101180004AE050E00E94512882E294E06AE30E9423
:10119000162782E294E0B801A7012AE030E00E941D
:1011A000F02782E294E06AE00E941627E114F1043D
:1011B00001051105A1F482E294E061E070E04AE0EB
:1011C00050E00E94512882E294E06AE30E941627D0
:1011D00082E294E040E050E060E070E01CC08FEFFD
:1011E000E8168FEFF8068FEF08078FEF1807E1F486
:1011F00082E294E062E070E04AE050E00E94512810
:1012000082E294E06AE30E94162782E294E04FEFC4
:101210005FEF6FEF7FEF2AE030E00E94F02782E27D
:1012200094E06AE00E9416271F910F91FF90EF90C3
:10123000089588E395E064E170E00E94E4178093EC
:101240004D040895CF93DF93CCE0D0E088E395E0A0
:10125000BE010E94E417FE01E250FC4F80832196FC
:10126000C231D10599F7DF91CF910895AF92BF9226
:10127000CF92DF92EF92FF920F931F93DF93CF9362
:1012800000D000D0CDB7DEB76C01E62EFF24EE0C07
:10129000FF1CEE0CFF1C00E010E05E010894A11C96
:1012A000B11CB8016E0D7F1D88E395E00E94E41724
:1012B000F501E00FF11F80830F5F1F4F0430110510
:1012C00081F7C60169814A812B810C810E944A26DF
:1012D000C6010F900F900F900F90CF91DF911F914B
:1012E0000F91FF90EF90DF90CF90BF90AF90089557
:1012F000FF920F931F93F82E492F08E315E0C801C2
:1013000062E170E00E94EB17C80163E170E04F2DCD
:101310000E94EB171F910F91FF900895EAE0F3E010
:1013200020E030E010C0C90173E0880F991F7A9562
:10133000E1F7220F331F820F931F242F30E0205339
:101340003040280F391F4191842F80538A3058F341
:1013500020939501309396012115310541F0C90183
:101360000E94780982E294E060E070E004C082E2CA
:1013700094E061E070E04AE050E00E94512882E28F
:1013800094E06AE00E94162708958730910509F4D9
:1013900043C088309105B4F48330910589F18430DD
:1013A000910554F48130910541F1823091050CF0A2
:1013B0005EC0892BF9F04BC08530910539F1069755
:1013C00044F521C08B30910599F18C30910534F4AE
:1013D0008930910539F10A9744F521C08D30910586
:1013E00069F18D3091053CF18E30910551F10F97E7
:1013F00071F52AC00E94980808950E9493070895E5
:101400000E94430108950E94440708950E944906DE
:1014100008950E94FA0508950E94FF0408950E940D
:101420008F0408950E948A0308950E946001089520
:101430000E948E0908950E948A0108950E94430324
:1014400008950E94FC0208950E94AD02089582E270
:1014500094E065E10E94E20F82E294E06AE00E947B
:1014600016278DE896E06AE071E00E9486280895CC
:10147000CF92DF92EF92FF920F931F93DF93CF9360
:10148000CDB7DEB72D970FB6F894DEBF0FBECDBF38
:101490008E010F5F1F4FC80162E274E00E94C61008
:1014A000C8010E94FA0D882309F479C08DE896E0FE
:1014B0006AE171E00E948628C801D02EC92E68C05A
:1014C0008D2D9C2D0E94C60E892B09F461C00E94AF
:1014D000E1287B018C018D2D9C2D0E94AA0E982F56
:1014E0008A3009F58DE896E067E271E00E9486286F
:1014F0008DE896E06CE274E00E9486280E94A201CA
:101500000E94C50980914C0490E020E030E0F90190
:10151000E45DFB4F10822F5F3F4F82179307BCF7AC
:1015200010924C043CC08D30C9F080914C04E82FDF
:10153000F0E0E45DFB4F90838F5F80934C04813239
:1015400068F082E294E065E10E94E20F82E294E0BA
:101550006AE00E9416278D2D9C2D17C00E94E1285D
:101560006E197F09800B910B69597A438040904036
:1015700078F082E294E065E10E94E20F82E294E07A
:101580006AE00E941627CE0101960E943E0E07C017
:101590008D2D9C2D0E941A0E882309F091CF2D9637
:1015A0000FB6F894DEBF0FBECDBFCF91DF911F9174
:1015B0000F91FF90EF90DF90CF9008950E94E12867
:1015C000209128043091290440912A0450912B0441
:1015D000621B730B840B950B695E734080409040D7
:1015E000C0F08DE896E068E371E00E9486288DE8FF
:1015F00096E060E070E04AE050E00E9464280E94BB
:10160000E128609328047093290480932A0490931E
:101610002B040E94380A0895FF920F931F9308E34A
:1016200015E0C80162E170E00E94E417F82EC801DD
:1016300063E170E00E94E417682F8F2D0E94152A45
:1016400090939601809395011F910F91FF900895BB
:101650000F931F93DF93CF93CDB7DEB7E0970FB60D
:10166000F894DEBF0FBECDBF8FE795E00E94D11882
:10167000CE01019660E00E9436098B819C81AD818C
:10168000BE818093120490931304A0931404B0932A
:101690001504CE01079661E00E94360989859A8576
:1016A000AB85BC858093180490931904A0931A0409
:1016B000B0931B04CE010D9662E00E9436098F851F
:1016C0009889A989BA8980931E0490931F04A093D6
:1016D0002004B09321040E9422090E940C0B0E9456
:1016E00019096091950170919601CE0143960E946F
:1016F000D80F8D899E8990932504809324048F8927
:10170000988D90932704809326048DE896E040E816
:1017100055E260E070E00E94C3248CE994E06AE046
:1017200074E00E94100D892B09F041C08DE896E00D
:1017300066E471E00E94862828E033E03A8F298F22
:101740008091120490911304A0911404B091150497
:101750008B8F9C8FAD8FBE8F38A32F8F80911804F5
:1017600090911904A0911A04B0911B0489A39AA323
:10177000ABA3BCA33EA32DA380911E0490911F0494
:10178000A0912004B09121048FA398A7A9A7BAA77C
:101790008CE994E06AE074E0AE01475E5F4F9E0121
:1017A000215E3F4F8E010B5D1F4F0E94990C68EE2A
:1017B00073E080E090E00E9415298DE896E06EE6E7
:1017C00071E00E94862882E294E00E943E118DE83A
:1017D00096E06CE771E00E9483288E01055D1F4F43
:1017E000C8016CE974E00E942B0C8DE896E0B8010A
:1017F0000E94562768EE73E080E090E00E94152971
:10180000E0960FB6F894DEBF0FBECDBFCF91DF914B
:101810001F910F910895DB01FC0128E033E0318333
:10182000208312962D913D914D915C9115972283C5
:1018300033834483558308950F9384EA94E060E0F2
:1018400040E020E000E00E944A268CE994E00E94FB
:10185000C5260F910895EF92FF920F931F93182FB3
:10186000092FE82EF92EC7010E94C52682E090E0DC
:10187000E80EF91E8FE090E0B70144E050E00E94CE
:10188000DC16812F902F1F910F91FF90EF900895FC
:101890006F927F928F929F92AF92BF92CF92DF9280
:1018A000EF92FF920F931F933C015B016A01490184
:1018B00088E295E00E949B1789E090E0B50146E040
:1018C00050E00E94B91582E090E0C80ED91E8FE06A
:1018D00090E0B60144E050E00E94B9150E5F1F4F42
:1018E00081E090E0B80144E050E00E94B915E2E0E8
:1018F000F0E0EE0EFF1E85E090E0B70144E050E01E
:101900000E94B915F40182819381A481B581F3010C
:1019100082839383A483B5831F910F91FF90EF90EF
:10192000DF90CF90BF90AF909F908F907F906F90FF
:1019300008956F927F928F929F92AF92BF92CF92B3
:10194000DF92EF92FF920F931F93DF93CF93CDB768
:10195000DEB76E970FB6F894DEBF0FBECDBF4C0159
:101960003B017A0169015801CE0101966FEF4FEFFB
:101970002FEF00E00E944A2628E033E038872F83CB
:10198000F70182819381A481B58189879A87AB878A
:10199000BC873E872D87F60182819381A481B58122
:1019A0008F87988BA98BBA8B3C8B2B8BF50182810F
:1019B0009381A481B5818D8B9E8BAF8BB88F3A8F2D
:1019C000298F8B819C81AD81BE818B8F9C8FAD8F48
:1019D000BE8FC401B301AE01495F5F4F9E01235F1B
:1019E0003F4F8E010D5E1F4FE9E1EE2EF12CEC0E04
:1019F000FD1E0E94480C6E960FB6F894DEBF0FBE17
:101A0000CDBFCF91DF911F910F91FF90EF90DF90AD
:101A1000CF90BF90AF909F908F907F906F900895E0
:101A2000CF92DF92EF92FF920F931F93DF93CF93AA
:101A3000CDB7DEB76E970FB6F894DEBF0FBECDBF41
:101A40006C017B018091AA04882371F48AEA94E0F6
:101A50000E94DE26892B41F089EF94E00E94C41297
:101A60008AEA94E00E94E82682EB94E0F6019783EC
:101A7000868388E295E00E949B1789E090E0B70199
:101A800046E050E00E94B915CE01019660E040E0CA
:101A900020E000E00E944A268FE090E0BE016D5FEA
:101AA0007F4F44E050E00E94B915F601868197818E
:101AB000B70120E63AEE40E050E0F0EAEF2EFFE01A
:101AC000FF2E012D112D0E94D9208C01813091050E
:101AD00009F040C0F60166817781CE0107960E9429
:101AE000831B8FE090E0BE01675F7F4F44E050E0D2
:101AF0000E94B915F60166817781CE010D960E948C
:101B00006D1B81E090E0BE01615F7F4F44E050E0DB
:101B10000E94B915F60166817781CE0143960E9435
:101B2000781B85E090E0BE016B5E7F4F44E050E0A3
:101B30000E94B915F60166817781CE0149960E940F
:101B4000621B8B8D9C8DAD8DBE8DF6018283938340
:101B5000A483B583C8016E960FB6F894DEBF0FBE9E
:101B6000CDBFCF91DF911F910F91FF90EF90DF904C
:101B7000CF900895FC011382128288EE93E0A0E0DA
:101B8000B0E084839583A683B7838EE992E0918346
:101B9000808364870895DF93CF930F92CDB7DEB72C
:101BA000FC016983A081B18112962D913C9113971C
:101BB000BE016F5F7F4F41E050E0F90109950F9042
:101BC000CF91DF910895CF93DF93EC0107C0E881B7
:101BD000F9810680F781E02DCE010995E881F98130
:101BE0000480F581E02DCE010995892B81F7DF91E5
:101BF000CF91089520E0FC018485843009F021E034
:101C0000822F08950F9384E195E060E040E020E0AA
:101C100000E00E944A260F910895FC0184858430DB
:101C200011F480E00895982F80E08D5F9B4F0E9413
:101C3000E0150895CF93DF93EC018C85843011F487
:101C400080E019C0CE010E940D0E843191F08823EE
:101C500081F0883171F08C3151F4E881F981048090
:101C6000F581E02DCE01099520E0892B19F021E0C6
:101C700001C020E0822FDF91CF910895EF92FF9273
:101C80000F931F93CF93DF93EC018C85843089F100
:101C90000E949A130E94E1287B018C01CE010E94D0
:101CA0000D0E882301F10E94E1286E197F09800B37
:101CB000910B685E734080409040A8F461E070E052
:101CC00080E090E00E941529E9CF8C850E94F513F1
:101CD000EC85F0E0EE0FFF1FEC56FB4F11821082F7
:101CE00084E08C8706C0CE010E940D0E882381F30C
:101CF000ECCFDF91CF911F910F91FF90EF9008955E
:101D00000F931F93DF93CF930F92CDB7DEB78C0164
:101D1000DC01ED91FC910480F581E02D0995892B82
:101D200019F42FEF3FEF0AC0F8018485BE016F5F01
:101D30007F4F0E9450158981282F30E0C9010F90F4
:101D4000CF91DF911F910F910895FC0184850E942E
:101D50005F150895DF93CF930F92CDB7DEB7FC01E7
:101D60008485BE016F5F7F4F41E050E00E945F15A8
:101D7000181619061CF02FEF3FEF03C08981282F9A
:101D800030E0C9010F90CF91DF910895FC01648587
:101D9000643019F420E030E005C088E295E00E944C
:101DA0008D169C01C90108950F931F93CF93DF9364
:101DB0008C01EA01FC018485843019F481E090E013
:101DC00007C00E94F914892B39F481E090E0F801F2
:101DD00093838283C0E0D0E0CE01DF91CF911F9149
:101DE0000F910895AF92BF92CF92DF92EF92FF9240
:101DF0000F931F93CF93DF937C016B015A01FC017A
:101E00008485843009F056C0C0E0D0E003E014E0DF
:101E1000C8010E94E015882321F0883111F08C312F
:101E200019F4F701C48706C0219600501F4FC43033
:101E3000D10571F7F70124852430E1F180919801F3
:101E40009091990101969093990180939801892B23
:101E500031F480E094E0909399018093980140914F
:101E6000980150919901822F61E020E00E942A148C
:101E700082E090E0C80ED91EF7018485B601A50165
:101E80000E94931409C061E070E080E090E00E943D
:101E90001529C7010E940D0E882321F484E0F70163
:101EA000848708C0C7010E940D0E873161F721E0C9
:101EB00030E002C020E030E0C901DF91CF911F91F6
:101EC0000F91FF90EF90DF90CF90BF90AF9008956B
:101ED0006F927F928F929F92AF92BF92CF92DF923A
:101EE000EF92FF920F931F93DF93CF93CDB7DEB79F
:101EF000E5970FB6F894DEBF0FBECDBF4C015B0176
:101F00003A0193E1E92EF12CEC0EFD1EC7010E946F
:101F1000C526CE014B960E94C4126E010894C11CC6
:101F2000D11CC6010E94C5268E01095F1F4FC80142
:101F30006CE974E00E940B0CC701B8010E942421D7
:101F4000C701B501A6010E94A3239C018130910520
:101F5000C9F4D401ED91FC910484F585E02D88E06D
:101F600093E09E878D878B819C81AD81BE818F8719
:101F7000988BA98BBA8BC401BE01635F7F4FA3010D
:101F800009959C01C901E5960FB6F894DEBF0FBE16
:101F9000CDBFCF91DF911F910F91FF90EF90DF9018
:101FA000CF90BF90AF909F908F907F906F9008954B
:101FB000FC01138212828AEB92E091838083758305
:101FC00064830895DF93CF930F92CDB7DEB7FC0102
:101FD0006983A081B18112962D913C911397BE0126
:101FE0006F5F7F4F41E050E0F90109950F90CF916D
:101FF000DF9108950F938AE195E060E040E020E0F2
:1020000000E00E944A260F9108958F929F92BF92FE
:10201000CF92DF92EF92FF920F931F93DF93CF93B4
:10202000CDB7DEB72D970FB6F894DEBF0FBECDBF8C
:102030007C0104E914E088249924BB246E010894EF
:10204000C11CD11CC6016B2D0E94BA0DD8012D9167
:102050003C91F7018481958128173907B1F4C601B5
:102060000E940D0E843121F481E0882E912C0DC048
:10207000C6010E940D0E8C3141F4C6010E94C60EAD
:10208000892B19F4C6010E943E0EB3940E5F1F4FB8
:10209000F4E0BF16B9F6892841F4D701ED91FC911F
:1020A0000480F581E02DC70109952D960FB6F894AF
:1020B000DEBF0FBECDBFCF91DF911F910F91FF907B
:1020C000EF90DF90CF90BF909F908F9008954F92A8
:1020D0005F926F927F928F929F92AF92BF92DF92A8
:1020E000EF92FF920F931F93DF93CF93CDB7DEB79D
:1020F0002D970FB6F894DEBF0FBECDBF4C012B015C
:102100003A010E94051094E9E92E94E0F92E00E0CE
:1021100010E0DD245E010894A11CB11CC5016D2DE9
:102120000E94BA0DF70120813181F40184819581EB
:102130002817390761F4C5010E940D0E873139F463
:10214000C501B201A3010E94D40E080F191FD39438
:1021500082E090E0E80EF91E94E0D916F9F6C80185
:102160002D960FB6F894DEBF0FBECDBFCF91DF9195
:102170001F910F91FF90EF90DF90BF90AF909F90D5
:102180008F907F906F905F904F9008959F92AF9245
:10219000BF92CF92DF92EF92FF920F931F93DF9344
:1021A000CF93CDB7DEB72D970FB6F894DEBF0FBE35
:1021B000CDBFC82E992E5B01CB010E94051004E90A
:1021C00014E0DD247E010894E11CF11CC7016D2D93
:1021D0000E94BA0DF80120813181F5018481958139
:1021E0002817390761F5C7010E940D0E873129F0C4
:1021F000C7010E940D0E8C3111F5C7010E94C60E59
:10220000892BE9F0EC2DF92D8B819C8193838283BE
:102210008D819E81AF81B88584839583A683B783A2
:1022200089859A85AB85BC8580879187A287B3878E
:102230008EE992E0918380838D8584870BC0D3944F
:102240000E5F1F4FF4E0DF1609F68C2D992D64E028
:102250000E94BA0D8C2D992D2D960FB6F894DEBFE5
:102260000FBECDBFCF91DF911F910F91FF90EF90E7
:10227000DF90CF90BF90AF909F900895CF92DF9264
:10228000EF92FF920F931F93DF93CF93CDB7DEB7FB
:102290002D970FB6F894DEBF0FBECDBF6C0100E0E6
:1022A00010E07E010894E11CF11CC701602F0E9420
:1022B000BA0DC7010E940D0E8823B1F4F6014481C6
:1022C0005581802F61E020E00E942A14802F0E9417
:1022D000AB13000F111F0C561B4FF6018481958123
:1022E000F8019183808305C00F5F1F4F04301105F3
:1022F000E1F62D960FB6F894DEBF0FBECDBFCF919D
:10230000DF911F910F91FF90EF90DF90CF90089594
:10231000DC01ED91FC91008CF18DE02D0995089583
:10232000DB01FC0128E033E03183208351962D91BD
:102330003D914D915C91549722833383448355831F
:102340000895FC01858996890895FC01818D928DFF
:102350000895DF93CF930F92CDB7DEB7FC01698369
:10236000A081B18112962D913C911397BE016F5FB0
:102370007F4F41E050E0F90109950F90CF91DF9137
:102380000895CF93DF93EC0107C0E881F9810680BF
:10239000F781E02DCE010995898D9A8D892BA9F7BA
:1023A000DF91CF9108950F9380E295E060E040E0E7
:1023B00020E000E00E944A260F910895DF93CF931A
:1023C0000F92CDB7DEB7FC01818D928D892B19F468
:1023D0002FEF3FEF09C08485BE016F5F7F4F0E94E2
:1023E00050158981282F30E0C9010F90CF91DF91DE
:1023F0000895CF93DF93EC019A01498D5A8D4115D1
:102400005105A1F02417350710F08C8502C08C858A
:10241000A9010E945F159C01181619063CF4898DCC
:102420009A8D821B930B9A8F898F02C02FEF3FEFFB
:10243000C901DF91CF9108950F931F93DF93CF933D
:102440000F92CDB7DEB78C01FC01818D928D892B67
:10245000A9F08485BE016F5F7F4F41E050E00E948C
:102460005F151816190654F4F801818D928D0197A5
:10247000928F818F8981282F30E002C02FEF3FEFAC
:10248000C9010F90CF91DF911F910F910895EF92A5
:10249000FF920F931F93DF93CF93CDB7DEB72897AB
:1024A0000FB6F894DEBF0FBECDBF8C01DC01ED91FD
:1024B000FC910284F385E02D099588E295E0F8010E
:1024C00064850E948D16892B19F420E030E025C028
:1024D000D8011C968C917E010894E11CF11CB70177
:1024E00048E050E00E945F159C0118161906ACF4F4
:1024F000C8010F96B7010E94A7269D8180E02E811A
:10250000820F911DF801968B858B9F8180E0288535
:10251000820F911D928F818F9C01C90128960FB661
:10252000F894DEBF0FBECDBFCF91DF911F910F9109
:10253000FF90EF9008950F931F938C01FB019A0178
:10254000DC0157966D917C9158971C968C91AF0148
:102550000E94C9149C01F8018789908D820F931FF6
:10256000908F878BC9011F910F910895FC0184857D
:102570000E94C9130895FC01108E178A6E5F7F4F69
:1025800084850E946D140895FC011382128288EEE6
:1025900093E0A0E0B0E084839583A683B78384ECC6
:1025A00092E09183808384E08487CF010F960E941C
:1025B000C52608956F927F928F929F92AF92BF929D
:1025C000CF92DF92EF92FF920F931F93DF93CF93FF
:1025D000CDB7DEB7E5970FB6F894DEBF0FBECDBF1F
:1025E0004C015B013A0183E1E82EF12CEC0EFD1E5B
:1025F000C7010E94C526CE014B960E94C4126E01EF
:102600000894C11CD11CC6010E94C5268E01095F19
:102610001F4FC8016CE974E00E940B0CC701B801A0
:102620000E942421C701B501A6010E94A3239C0199
:1026300081309105C9F4D401ED91FC910088F189B4
:10264000E02D88E093E09E878D878B819C81AD8112
:10265000BE818F87988BA98BBA8BC401BE01635F43
:102660007F4FA30109959C01C901E5960FB6F89427
:10267000DEBF0FBECDBFCF91DF911F910F91FF90B5
:10268000EF90DF90CF90BF90AF909F908F907F9012
:102690006F900895CF93DF93EC018C85843061F0C7
:1026A0000E94F513EC85F0E0EE0FFF1FEC56FB4F98
:1026B0001182108284E08C87DF91CF910895CF92B0
:1026C000DF92EF92FF920F931F93CF93DF937C01E2
:1026D0006B01FC018485843019F5C0E0D0E003E093
:1026E00014E0C8010E94E015882311F0883119F424
:1026F000F701C48706C0219600501F4FC430D10592
:1027000081F7F7018485843059F0D686C586128E0C
:10271000118E62E0A60120E00E942A1481E001C02F
:1027200080E0DF91CF911F910F91FF90EF90DF90AC
:10273000CF900895682F88E295E048E050E00E942D
:102740008917089590E00496982F8827860F971F81
:102750000E94E01508951F93182F63E070E00E9417
:10276000A213833111F080E008C088E295E0612F68
:1027700042E050E00E94891781E01F91089590E0A7
:102780000496982F8827860F971F642F0E949F1505
:1027900008951F93182F88E295E0612F40E250E0E2
:1027A0000E94891710C0812F62E070E00E94A2137E
:1027B00083FF09C0812F62E070E048E10E94BF13EF
:1027C00020E030E00FC0812F62E070E00E94A21391
:1027D00084FFE9CF812F62E070E040E10E94BF13E7
:1027E00021E030E0C9011F9108951F93182F88E25E
:1027F00095E0612F40E150E00E948917812F62E04F
:1028000070E04FEF0E94BF131F9108950F931F9325
:10281000182F062F472F60E170E00E94BF13812F11
:1028200061E170E0402F0E94BF131F910F91089546
:102830000F931F93182F062F472F64E070E00E941C
:10284000BF13812F65E070E0402F0E94BF131F91DE
:102850000F910895FF920F931F93CF93DF93082F4B
:10286000F62EEA01122F862F8150853010F080E07D
:1028700024C0802F0E94F5131F29802F60E070E094
:10288000412F0E94BF13209719F0802FBE010BC06B
:1028900060912605709127056F5F7F4F7093270524
:1028A00060932605802F0E94181488E295E0602F1F
:1028B00041E050E00E94891781E0DF91CF911F91A4
:1028C0000F91FF90089590E0982F8827845F9B4F89
:1028D00044E050E00E94B91508951F93CF93DF9311
:1028E000182FFB01EA018081882349F48181882324
:1028F00031F48281882319F48381882369F0209739
:1029000059F0812FBF010E946314812FBE010E94E4
:10291000061421E030E002C020E030E0C901DF9180
:10292000CF911F9108951F93CF93DF93182FFB0131
:10293000EA0180818F3F51F481818F3F91F4828140
:102940008F3F79F483818F3F61F41EC0882349F45F
:102950008181882331F48281882319F4838188233B
:1029600099F0209789F0812FBF010E946314812F75
:10297000BE010E94061488E295E0612F44E050E019
:102980000E94891781E001C080E0DF91CF911F9103
:102990000895AF92BF92DF92EF92FF920F931F9331
:1029A000CF93DF93D82EEB015A01890188E295E09D
:1029B0006D2D0E94C0168017910710F0780106C097
:1029C00088E295E06D2D0E94C0167C0188E295E0BA
:1029D0006D2DAE01950187010E94F915C701DF91A8
:1029E000CF911F910F91FF90EF90DF90BF90AF902C
:1029F0000895CF92DF92EF92FF921F93CF93DF93D0
:102A0000182F6B01EA0188E04130580710F0C0E050
:102A1000D8E088E295E0612F0E94C0167C01812FEA
:102A200063E070E00E94A213873129F08C3119F025
:102A3000C0E0D0E003C0EC16FD0658F388E295E054
:102A4000612FA6019E010E946A1688E295E0612F1F
:102A500040E250E00E9489170DC0812F63E070E0D2
:102A60000E94A213882331F4812F0E94F513C0E045
:102A7000D0E00DC0812F62E070E00E94A21384FFBD
:102A8000ECCF812F62E070E040E10E94BF13CE01E5
:102A9000DF91CF911F91FF90EF90DF90CF9008953D
:102AA0000F93282FAB0188E295E0622F21E030E000
:102AB00001E00E943E1781E090E00F910895CF92CF
:102AC000DF92FF920F931F93CF93DF93F82E6B014A
:102AD0008A0188E295E06F2D0E948D16EC01009727
:102AE00061F48F2D63E070E00E94A2138431D9F06D
:102AF0008823C9F08C31B9F01FC0081719070CF4EE
:102B0000E8011C161D067CF488E295E06F2DA601F5
:102B10009E0100E00E943E1788E295E06F2D40E4A0
:102B200050E00E948917CE01DF91CF911F910F9144
:102B3000FF90DF90CF900895CFEFDFEFF4CF282FF5
:102B40002A9880EF8EBD0DB407FEFDCF8EB59EBDD9
:102B50000DB407FEFDCF8EB52EBD0DB407FEFDCF23
:102B60008EB56EBD0DB407FEFDCF8EB52A9A81E0FD
:102B70000895DC0120E030E090EF1DC02A989EBD52
:102B80000DB407FEFDCF8EB5BEBD0DB407FEFDCF63
:102B90008EB5AEBD0DB407FEFDCF8EB5FB01E20FC5
:102BA000F31F80818EBD0DB407FEFDCF11968EB54B
:102BB0002A9A2F5F3F4F2417350700F3CA01089563
:102BC000282F2A988FE08EBD0DB407FEFDCF8EB55D
:102BD0009EBD0DB407FEFDCF8EB52EBD0DB407FE14
:102BE000FDCF8EB51EBC0DB407FEFDCF8EB52A9A63
:102BF00008957F928F929F92AF92BF92CF92DF9271
:102C0000EF92FF920F931F93CF93DF936C01762E79
:102C10007A0149015801862F64E270E00E94A213F4
:102C2000182F872D65E270E00E94A213C82FD0E014
:102C3000912F80E0C82BD92BCE0DDF1DAE01577030
:102C4000872D90E0880F991FC80ED91EF6012081AC
:102C50003181240F351FCA018A0D9B1D8150984078
:102C600098F000E018E0041B150BC901B401A8019D
:102C70000E94B915A501401B510BF601808191817D
:102C8000080D191DB80103C0C901B401A5010E94B6
:102C9000B9157E01EA0CFB1C072D10E00C5F1F4FDD
:102CA000102F0027C80184966F2D0E949F15C80120
:102CB00085966E2D0E949F15DF91CF911F910F91E8
:102CC000FF90EF90DF90CF90BF90AF909F908F904C
:102CD0007F9008950F931F93FA01890140E050E01F
:102CE0009F010E94F9151F910F9108950F931F9353
:102CF000182F66E270E00E94A213082F812F67E26E
:102D000070E00E94A213502F40E0282F30E0242BC7
:102D1000352BC9011F910F910895FF920F931F93B7
:102D2000CF93DF93F62EC0E0D0E08F2D0E94761671
:102D30008C01009721F08F2D0E947616EC01C017B0
:102D4000D10799F7CE01DF91CF911F910F91FF909D
:102D500008950F931F93182F60E270E00E94A21352
:102D6000082F812F61E270E00E94A213502F40E0F3
:102D7000282F30E0242B352BC9011F910F91089586
:102D8000FF920F931F93CF93DF93F62EC0E0D0E016
:102D90008F2D0E94A9168C01009721F08F2D0E9483
:102DA000A916EC01C017D10799F7CE01DF91CF9199
:102DB0001F910F91FF900895DC0120E030E09FE02B
:102DC0001DC02A989EBD0DB407FEFDCF8EB5BEBDB9
:102DD0000DB407FEFDCF8EB5AEBD0DB407FEFDCF21
:102DE0008EB51EBC0DB407FEFDCF11968EB5FB014E
:102DF000E20FF31F80832A9A2F5F3F4F2417350776
:102E000000F3CA010895CF92DF92EF92FF920F93E1
:102E10001F93CF93DF93690178015770C62FD0E0DD
:102E20002496CC0FDD1FC80FD91F28813981240FAC
:102E3000351FC801840F951F8150984088F000E02D
:102E400018E0041B150BC901B601A8010E94DC168D
:102E5000E01AF10A888199810C0D1D1DB80102C08C
:102E6000C901B601A7010E94DC16DF91CF911F9125
:102E70000F91FF90EF90DF90CF9008958F929F92E7
:102E8000AF92BF92CF92DF92EF92FF920F931F9378
:102E9000CF93DF937C01A62E6A014901B02E862FC5
:102EA00068E270E00E94A213182F8A2D69E270E098
:102EB0000E94A213C82FD0E0912F80E0C82BD92BFD
:102EC000C7016A2DAE01960184010E940317BB2041
:102ED00099F47E01E80CF91C0A2D10E00C5F1F4FDD
:102EE000102F0027C80188966F2D0E949F15C801DA
:102EF00089966E2D0E949F15DF91CF911F910F91A2
:102F0000FF90EF90DF90CF90BF90AF909F908F9009
:102F100008951F93162F962F80E08F5F9B4F642F8D
:102F20000E949F15812F61E070E00E94A213882308
:102F3000C9F71F9108950F931F93182F092F6CE263
:102F400071E080E090E00E9415290E94CD17229A3E
:102F500080E090E060E80E949F158BE190E065E5DD
:102F60000E949F158AE190E065E50E949F15212F40
:102F7000302FC901FC0180E090E491838083805070
:102F8000904E9187808780509841329620E680301D
:102F9000920799F71F910F9108958AE061E00E94CE
:102FA000E2298AE061E00E9476298CB580618CBDBF
:102FB0008CB580648CBD8DE061E00E9476298BE049
:102FC00061E00E9476290895F999FECF72BD61BD36
:102FD000F89A80B50895F999FECF1FBA72BD61BD08
:102FE00040BD0FB6F894FA9AF99A0FBE089581E0A1
:102FF00080937E0560935B0510927C0510927D05A1
:10300000089520915A0530E080915905281B310917
:10301000C90108954091590580915A05481718F043
:103020002FEF3FEF0AC0E42FF0E0E75CFA4F80811A
:10303000282F30E04F5F40935905C9010895E09172
:10304000590580915A05E81718F0EFEFFFEF06C019
:10305000F0E0E75CFA4F8081E82FF0E0CF010895BF
:103060000895109282051092810588EE93E0A0E009
:10307000B0E08093830590938405A0938505B09379
:10308000860588EE92E09093800580937F050895F1
:10309000CF92DF92EF92FF920F931F93CF93DF9324
:1030A0007C016B018A0180917E058823A1F0C0E03C
:1030B000D0E00DC0D701ED91FC91D601AC0FBD1F42
:1030C0000190F081E02DC7016C9109952196C01700
:1030D000D10780F304C0CB01642F0E947A19C80184
:1030E000DF91CF911F910F91FF90EF90DF90CF90E4
:1030F0000895DF93CF930F92CDB7DEB7FC016983BC
:1031000080917E058823C9F080917D05803238F05A
:1031100081E090E09383828320E030E015C08091CD
:103120007C05E82FF0E0E45AFA4F998190838F5F95
:1031300080937C0580937D0505C0CE01019661E0FA
:103140000E947A1921E030E0C9010F90CF91DF9100
:1031500008950F93062F80915B056CE575E0409113
:103160007D0521E00E94251910927C0510927D05B5
:1031700010927E050F91089561E00E94A9180895AC
:10318000413208F040E2862F69E375E00E94DC18C6
:103190001092590580935A05089521E00E94C018A5
:1031A00008951092590510925A0510927C051092BC
:1031B0007D050E94261B0895382F413210F040E013
:1031C00042C080918B058823E1F791E090938B05B5
:1031D00020938D058FEF8093F8051092B305415031
:1031E0004093B4054F5F90938C0580918C05330F0D
:1031F000832B80938C0580918E05813041F4109251
:103200008E0580918C058093BB0085EC01C085EE16
:103210008093BC0080918B058130E1F38091B305F0
:10322000841710F44091B30520E030E00AC0FB01A0
:10323000E20FF31FD901AD56BA4F8C9180832F5FF7
:103240003F4F2417A0F3842F08950F931F93582FF7
:10325000122F413210F081E04AC080918B05882303
:10326000E1F782E080938B0500938D058FEF8093CB
:10327000F8051092B3054093B405A3E9B5E0FB014E
:1032800002C081918D938E2F861B8417D0F31092EC
:103290008C0580918C05550F852B80938C05809132
:1032A0008E05813041F410928E0580918C058093BB
:1032B000BB0085EC01C085EE8093BC00112321F09A
:1032C00080918B058230E1F38091F8058F3F11F4F6
:1032D00080E00DC08091F805803211F482E007C0D3
:1032E0008091F805803311F084E001C083E01F91E4
:1032F0000F910895482F613210F081E00895809178
:103300008B05843011F082E008956093D605A5EB1B
:10331000B5E0842F9C01F90102C081918D938E2F1D
:10332000841B8617D0F380E008951F920F920FB68A
:103330000F9211242F933F934F935F936F937F933B
:103340008F939F93AF93BF93EF93FF938091B900B7
:1033500090E0887F90708036910509F4F2C0813644
:103360009105CCF58832910509F47BC0893291052D
:10337000B4F48031910509F46FC0813191053CF4BA
:10338000009709F447C1089709F04FC165C088311B
:10339000910509F466C0809709F047C182C0803466
:1033A000910509F4A4C08134910544F4803391055A
:1033B00009F482C0C89709F038C189C080359105E9
:1033C00009F489C08835910509F496C088349105BF
:1033D00009F02BC1AEC08839910509F413C18939B0
:1033E0009105ECF48837910509F4ABC08937910554
:1033F0004CF48836910509F4A4C08037910509F092
:1034000014C19FC08838910509F4FCC0803991052A
:1034100009F49DC08038910509F007C198C0803B30
:10342000910509F4C6C0813B91054CF4803A9105A1
:1034300009F49FC0883A910509F0F7C0BAC0803CF2
:10344000910509F4E3C0883C910509F4DFC0883B8D
:10345000910509F0EAC0C2C080918C058093BB0041
:10346000CFC09091B3058091B405981768F49091FE
:10347000B305E92FF0E0ED56FA4F80818093BB0051
:103480009F5F9093B305BCC080918D05882309F49C
:103490004BC085ED8093BC008091BC0084FDFCCFC7
:1034A000C2C080E28093F80585ED8093BC008091D6
:1034B000BC0084FDFCCFB7C080E38093F80585EDA8
:1034C0008093BC008091BC0084FDFCCFACC088E33D
:1034D0008093F8059BC08091B3059091BB00E82FC5
:1034E000F0E0ED56FA4F90838F5F8093B305909193
:1034F000B3058091B40582C08091B3059091BB0063
:10350000E82FF0E0ED56FA4F90838F5F8093B3057C
:1035100080918D05882341F085ED8093BC008091DA
:10352000BC0084FDFCCF7FC081E080938E0584EADF
:103530006EC085ED8093BC008091BC0084FDFCCF03
:1035400072C083E080938B051092F70559C080917B
:10355000F705803208F056C08091F7059091BB00C6
:10356000E82FF0E0E952FA4F90838F5F8093F705E0
:1035700047C08091F705803230F4E091F705F0E024
:10358000E952FA4F108285ED8093BC008091BC0017
:1035900084FDFCCF10928B056091F705E0919105B9
:1035A000F091920587ED95E070E009951092F7058E
:1035B0002DC084E080938B051092D5051092D6051E
:1035C000E0918F05F091900509958091D6058823AB
:1035D00029F481E08093D6051092B5059091D50528
:1035E000E92FF0E0EB54FA4F80818093BB009F5F9E
:1035F0009093D5059091D5058091D605981710F434
:1036000085EC01C085E88093BC000FC085EC8093F9
:10361000BC0009C01092F80585ED8093BC00809134
:10362000BC0084FDFCCF10928B05FF91EF91BF9100
:10363000AF919F918F917F916F915F914F913F914A
:103640002F910F900FBE0F901F90189510928B0521
:1036500081E080938D0510928E0582E161E00E94E9
:10366000E22983E161E00E94E229E9EBF0E0808158
:103670008E7F808380818D7F808388E48093B800F3
:1036800085E48093BC000895FB0180E38083842F50
:1036900082958F704F704A3014F4405D01C0495CD0
:1036A00041833197882311F0482FF1CF08950F936C
:1036B00089EF95E060E040E020E000E00E944A26CB
:1036C0000F9108950F931F938C01625E7F4F0E94AC
:1036D000B426C8011F910F9108950F931F938C0179
:1036E0006A5E7F4F0E94B426C8011F910F91089512
:1036F0000F931F938C016E5E7F4F0E94B426C8010A
:103700001F910F9108950F931F938C01625F7F4F5C
:103710000E94B426C8011F910F9108952F923F92E5
:103720004F925F926F927F928F929F92AF92BF92D1
:10373000CF92DF92EF92FF920F931F93DF93CF937D
:10374000CDB7DEB7E8970FB6F894DEBF0FBECDBF9A
:103750005C013A014B0129010E94E1287B018C01A7
:10376000F7E4CF2ED12CCA0CDB1C14C00E94E12838
:103770006E197F09800B910B6616770688069906ED
:1037800018F477247A941AC262E370E080E090E043
:103790000E941529C6010E9447121816190634F70F
:1037A000C601BE01635F7F4F42E250E00E94F91103
:1037B0008D85823009F0FEC12CE530E0A20EB31EEB
:1037C000F5018081918124EA3FEFA20EB31E83347C
:1037D000910509F0EFC129893A894B895C89E52E69
:1037E000FF2400271127B22FAA2799278827E82A24
:1037F000F92A0A2B1B2BB42FA32F922F8827807016
:103800009070B070E82AF92A0A2B1B2B232F342F33
:10381000452F5527207040705070E22AF32A042B60
:10382000152BF201E082F18202831383B501685FF8
:103830007F4FCE01899646E050E00E94F600009747
:1038400099F4F50180819181A281B381E816F9068E
:103850000A071B0748F084819581A681B7818E15E0
:103860009F05A007B10728F4C6010E94C111772463
:10387000A5C18D8D9E8DAF8DB8A1F50186879787E7
:10388000A08BB18B00E010E0C6010E941C120F5FFC
:103890001F4F0E3C1105C1F795012E5E3F4F38AF0B
:1038A0002FABC50146969EAB8DABF5017E96FCAB6A
:1038B000EBAB8AE1882E912C8A0C9B1C95012A5D2A
:1038C0003F4F3AAB29ABC5018A9698AB8FA702E26E
:1038D000202E312C2A0C3B1C772418E5412E512C2C
:1038E0004A0C5B1C5FC1C6010E941C128333910508
:1038F00009F414C1843391058CF48130910569F188
:103900008230910524F4892B09F44CC140C18330E5
:10391000910551F1069709F03AC142C08A339105E9
:1039200009F490C08B3391053CF48533910569F01F
:10393000C69709F02CC150C08B33910509F4B8C06B
:103940008F3F910509F023C12DC1C6010E941C12B1
:10395000C6010E941C12782E25C1C6010E941C12AD
:10396000C6016FA978AD62C0C6010E941C12182F53
:10397000C6016DA97EA944E050E00E94F911EE2431
:10398000FF24012F10E00450104006C0C6010E9421
:103990001C120894E11CF11CE016F106BCF302C1F4
:1039A000C6010E941C12182FC6016BA97CA944E015
:1039B00050E00E94F911EE24FF24012F10E0045082
:1039C000104006C0C6010E941C120894E11CF11CA4
:1039D000E016F106BCF3E6C0C6010E941C12182FC7
:1039E000F40180819181A281B3810097A105B10585
:1039F000D9F0CE010196B4010E94B42628E033E04C
:103A000038872F83F20120813181428153812987B8
:103A10003A874B875C878B819C81AD81BE81821701
:103A20009307A407B50759F4C601B40144E050E078
:103A30000E94F911B7C0C6010E941C121150112337
:103A4000D1F7B0C0C6010E941C12C60169A97AA9AB
:103A500044E050E00E94F911F50126A137A140A5EC
:103A600051A5E52EFF2400271127B22FAA27992759
:103A70008827E82AF92A0A2B1B2BB42FA32F922F71
:103A8000882780709070B070E82AF92A0A2B1B2BC7
:103A9000232F342F452F5527207040705070E22A75
:103AA000F32A042B152BE6A2F7A200A711A77AC0D0
:103AB000C6010E941C12C6016FA578A944E050E01F
:103AC0000E94F911F50122A533A544A555A5E52EBF
:103AD000FF2400271127B22FAA2799278827E82A31
:103AE000F92A0A2B1B2BB42FA32F922F8827807023
:103AF0009070B070E82AF92A0A2B1B2B232F342F41
:103B0000452F5527207040705070E22AF32A042B6D
:103B1000152BE2A6F3A604A715A744C0C6010E9470
:103B20001C12C601B10144E050E00E94F911F501F8
:103B300022A133A144A155A1E52EFF24002711277E
:103B4000B22FAA2799278827E82AF92A0A2B1B2BA4
:103B5000B42FA32F922F882780709070B070E82A1E
:103B6000F92A0A2B1B2B232F342F452F5527207082
:103B700040705070E22AF32A042B152BE2A2F3A224
:103B800004A315A3E6A6F7A600AB11AB0BC0C601B4
:103B90000E941C12182F04C0C6010E941C12115052
:103BA0001123D1F7C6010E94A511181619060CF4AD
:103BB0009ACE01C07724C6010E94C111872DE896D4
:103BC0000FB6F894DEBF0FBECDBFCF91DF911F912E
:103BD0000F91FF90EF90DF90CF90BF90AF909F90AC
:103BE0008F907F906F905F904F903F902F900895AF
:103BF0000E96FC0184E1DF011D928A95E9F7089594
:103C00004F925F926F927F928F929F92AF92BF92EC
:103C1000CF92DF92EF92FF920F931F93DF93CF9398
:103C2000CDB7DEB7E2970FB6F894DEBF0FBECDBFBB
:103C30006C01462E3A01F3E18F2E912C8C0E9D1EC5
:103C4000E0E25E2EF401252D11922A95E9F7CE01CE
:103C500007966FEF4FEF2FEF0FEF0E944A2677E4A2
:103C6000A72EB12CAC0CBD1C88E093E09E878D87FD
:103C700089859A85AB85BC858F87988BA98BBA8BF4
:103C8000C501BE01635F7F4F43E450E00E94BB1259
:103C90008F5F9F4F09F4F3C081E08B8B8C8B86E0A4
:103CA0008D8B1E8AF6012481358146815781E52E50
:103CB000FF2400271127B22FAA2799278827E82A4F
:103CC000F92A0A2B1B2BB42FA32F922F8827807041
:103CD0009070B070E82AF92A0A2B1B2B232F342F5F
:103CE000452F5527207040705070E22AF32A042B8C
:103CF000152BEB82FC820D831E83EF8AF88E098FD1
:103D00001A8F7B8E6C8E80E890E09A8389839E8FD9
:103D10008D8FC501B4014CE150E00E949B12F4016B
:103D200011925A94E9F7A8E06A2E712C6C0C7D1C54
:103D3000D401F30186E001900D928150E1F78E01EC
:103D40000D5E1F4FC501B80140E150E00E949B127B
:103D500080E2F80111928A95E9F7EE24FF24902E73
:103D6000012FC501692D702F40E250E00E949B1287
:103D70000894E11CF11CF6E0EF16F10491F793E6CC
:103D80009B8B82E88C8B83E58D8B9E8B85E38F8B61
:103D900091E0988F498E8DE38A8F87E08B8F9C8F7F
:103DA000DE015D96F30186E001900D928150E1F70E
:103DB0008CE08BA38CA38E010D5E1F4FCE018596E8
:103DC0006AE871E00E940301C601BE01655D7F4F94
:103DD000F60143850E94441BC601BE01635D7F4F0F
:103DE000F60144850E94441BC601BE01615D7F4F00
:103DF000F60145850E94441BC501B8014EE150E023
:103E00000E949B12F3E04F16F1F482E38B8B94E057
:103E10009C8BF60186858D8B87858E8B80898F8B19
:103E20008189888F86E3898F9A8F828D8B8F838D8E
:103E30008C8F848D8D8F858D8E8FC501B8014CE060
:103E400050E00E949B1287E38B8B96E09C8B81E075
:103E50008D8B83E08E8B9F8B8FE0888F8AE3898F99
:103E60008BE38A8F8FEF8B8FC501BE016D5E7F4F15
:103E700049E050E00E949B12C5010E94B612E296F2
:103E80000FB6F894DEBF0FBECDBFCF91DF911F916B
:103E90000F91FF90EF90DF90CF90BF90AF909F90E9
:103EA0008F907F906F905F904F9008952F923F92E8
:103EB0004F925F926F927F928F929F92AF92BF923A
:103EC000CF92DF92EF92FF920F931F93DF93CF93E6
:103ED00000D000D0CDB7DEB78C0161E070E080E0AB
:103EE00090E020ED37E040E050E00E943E2AD8010B
:103EF00014966C93149715967C93159716968C933D
:103F0000169717969C9317976C9311967C9311971D
:103F100012968C93129713969C9377E4472E512C0C
:103F2000400E511EC2010E944A13C20164E470E0B7
:103F30000E945F13882319F46624772422C10E940B
:103F4000E1284B015C016624772466E4C62ED12C5F
:103F5000C00ED11E5EE3252E312C200E311E42E014
:103F6000E42EFBC0882309F5F80184819581A681A0
:103F7000B7810196A11DB11D84839583A683B78364
:103F80000E94E128681979098A099B0928EE33E023
:103F900040E050E00E947B2AC80161E0A9010E9434
:103FA000001E81E0D6018C93C2C0843001F5F80177
:103FB00084819581A681B7810196A11DB11D84835D
:103FC0009583A683B7830E94E128681979098A0935
:103FD0009B0928EE33E040E050E00E947B2AC801B4
:103FE00063E0A9010E94001ED601EC92A0C08130BE
:103FF00069F5F1014081518162817381C8019E019F
:104000002F5F3F4F0E948E1BF82EF2E08F1709F0B2
:1040100089C089819A81AB81BC81F80184839583B1
:10402000A683B7830E94E128681979098A099B0948
:1040300028EE33E040E050E00E947B2AC80163E0B4
:10404000A9010E94001ED601FC9271C0823009F0C5
:104050006EC0F1014081518162817381C8019E016E
:104060002F5F3F4F0E948E1BF82EF5E08F1709F04F
:1040700053C0E3E0D601EC93F80182A193A1A4A17F
:10408000B5A10097A105B10541F484E893E0A0E053
:10409000B0E082A393A3A4A3B5A3F80186A197A13E
:1040A000A0A5B1A50097A105B10561F482A193A1D6
:1040B000A4A1B5A1B695A7959795879586A397A333
:1040C000A0A7B1A7F80182A593A5A4A5B5A50097BF
:1040D000A105B10561F486A197A1A0A5B1A5880F9E
:1040E000991FAA1FBB1F82A793A7A4A7B5A7F80172
:1040F00086A197A1A0A5B1A586A797A7A0ABB1ABB4
:1041000082A593A5A4A5B5A582AB93ABA4ABB5AB93
:10411000A1E06A2E712C0BC0F6E08F1719F4D601BE
:104120001C9205C0BFEFFB1611F4F6011082F1E0FE
:104130006F16710491F00E94E128681979098A09C3
:104140009B09D801DA962D913D914D915C91DD97B7
:10415000261737074807590728F0F6018081833072
:1041600009F000CFC2010E944A13F80184819581B1
:10417000A681B7810196A11DB11D84839583A68375
:10418000B783C3010F900F900F900F90CF91DF91E5
:104190001F910F91FF90EF90DF90CF90BF90AF9065
:1041A0009F908F907F906F905F904F903F902F9057
:1041B0000895CF92DF92EF92FF920F931F93CF93C8
:1041C000DF93EC01D62EC72E1AA21BA21CA21DA2A1
:1041D0001EA21FA218A619A61AA61BA61CA61DA6DB
:1041E0001EAA1FAA18AE19AE2AAF3BAF4CAF5DAFE7
:1041F000EE96E882F9820A831B83EE978E01085FB0
:104200001F4F86E0F80111928A95E9F7CE010E94CE
:10421000F81DD8012D2D3C2DC901FC0186E001902F
:104220000D928150E1F7CA5BDF4F1882C654D0402F
:10423000CE010E94561FDF91CF911F910F91FF90E9
:10424000EF90DF90CF9008959C01FB0182819381D4
:10425000A481B581F90182839383A483B5831782F6
:1042600016820895CF93DF93FB0101C031968081C0
:104270008823E1F7EB01A0E0B0E020E030E021C0CE
:104280006E3261F42F3F310509F07CF5FA01EA0F37
:10429000FB1F2283119620E030E012C0C901E3E049
:1042A000880F991FEA95E1F7220F331F820F931FA2
:1042B000262F332727FD309520533040280F391FF4
:1042C00021966881662319F0A430B105CCF22F3F06
:1042D000310509F054F4A430B1053CF4A40FB51F26
:1042E00012962C9321E030E002C020E030E0C901BA
:1042F000DF91CF9108950F938FEF95E060E040E05C
:1043000020E000E00E944A260F9108952F923F92EC
:104310004F925F926F927F928F929F92AF92BF92D5
:10432000CF92DF92EF92FF920F931F93DF93CF9381
:10433000CDB7DEB769970FB6F894DEBF0FBECDBF1D
:104340004C018B011A010E94E1282B013C01F8E08D
:10435000EF2EF12CE80CF91C5801CC24DD2414C0FC
:104360000E94E1286419750986099709A616B706FF
:10437000C806D90618F42FEF3FEF0BC162E370E0D7
:1043800080E090E00E941529C7010E94471218168C
:10439000190634F7F4012281338144815581818DDE
:1043A000928DA38DB48D8A879B87AC87BD87281794
:1043B00039074A075B0709F0EAC0858D968DC597D6
:1043C00009F0E5C000C18E01025F1F4FC701B801AF
:1043D0004CE050E00E94F911F801528143815B8367
:1043E0004A83F401268137818E859F8528173907F6
:1043F00011F457FD06C0C7010E94C1112CEF3FEF19
:10440000C8C04F705270452B31F0C7010E94C111D6
:104410002BEF3FEFBEC0F801768067806114710416
:1044200041F0AA24BB2448012E010894411C511CD0
:1044300028C0C7010E94C1112AEF3FEFAAC0C701DF
:10444000B20141E050E00E94F9118981882321F4F2
:1044500008C0C7010E941C128981815089838F5F27
:10446000C1F78981882359F700E010E0C7010E9455
:104470001C120F5F1F4F04301105C1F70894A11CD7
:10448000B11CF401D480C580AC14BD04C0F2442436
:104490005524C701BE016F5F7F4F41E050E00E948D
:1044A000F9119981892F807C61F4992321F40DC041
:1044B000C7010E941C128981815089838F5FC1F7D7
:1044C00004C0C7010E941C1219828981882309F740
:1044D000C701BE016C5F7F4F42E050E00E94F911BE
:1044E000C701BE016A5F7F4F42E050E00E94F911B0
:1044F00000E010E0C7010E941C120F5F1F4F043044
:104500001105C1F7C701BE016E5F7F4F42E050E069
:104510000E94F911DC80CD80F1E0CF16D10419F5AD
:10452000BE80AF8081E0A816B104E9F49A818B8146
:10453000049731F0C7010E94C11127EF3FEF29C056
:10454000E2E0F0E02E0E3F1EC701B10144E050E072
:104550000E94F91121E030E01CC0C7010E941C122A
:104560000F5F1F4F02C000E010E09A808B8008159B
:10457000190598F30894411C511C4614570408F47B
:1045800088CFC7010E94C11126EF3FEF02C02EEF76
:104590003FEFC90169960FB6F894DEBF0FBECDBFDD
:1045A000CF91DF911F910F91FF90EF90DF90CF900F
:1045B000BF90AF909F908F907F906F905F904F9043
:1045C0003F902F90089588E093E099878887C701EE
:1045D0000E94A5110C970CF0F6CE2DEF3FEFD9CF2E
:1045E0006F927F928F929F92AF92BF92CF92DF9203
:1045F000EF92FF920F931F93DF93CF9300D00F9210
:10460000CDB7DEB78C01F62EE72E0E94E128F80127
:1046100077836683B8E0CB2ED12CC00ED11E0A5F03
:104620001F4FC601B80142E050E00E949B1281E09A
:1046300090E09B838A83A2E08A2E912C8C0E9D1E93
:10464000C601B40142E050E00E949B1280E091E07C
:104650009B838A83C601B40142E050E00E949B1212
:104660001B821A82C601B40142E050E00E949B12F4
:10467000C601B40142E050E00E949B12C601B401A1
:1046800042E050E00E949B122F2D3E2DC9018C016B
:104690007C013E010894611C711C20C00894E11C3F
:1046A000F11CF7018081882311F08E32B9F7570190
:1046B000A01AB10A1A141B0474F48E2D801B89836E
:1046C000C601B30141E050E00E949B12C601B8014F
:1046D000A5010E949B1287010F5F1F4FF701808188
:1046E000882311F07801DDCF1982C601BE016F5F0A
:1046F0007F4F41E050E00E949B1200E011E01B83DD
:104700000A83C601B40142E050E00E949B121B8361
:104710000A83C601B40142E050E00E949B1281E08E
:1047200090E00F900F900F90CF91DF911F910F911C
:10473000FF90EF90DF90CF90BF90AF909F908F90C1
:104740007F906F9008958F929F92AF92BF92CF9279
:10475000DF92EF92FF920F931F93DF93CF9300D0DE
:1047600000D000D0CDB7DEB76C017B014A010E94BA
:104770003221892B19F001E010E067C0F601228197
:104780003381448155818091010690910206A09168
:104790000306B0910406281739074A075B0719F486
:1047A0000EEF1FEF52C018E0A12EB12CAC0CBD1CB7
:1047B0000E94E1289B01AC012F70307020503C4FCB
:1047C000C501B9010E945F13813019F000E010E0CB
:1047D0003CC088E093E09A838983F60182819381CB
:1047E000A481B5818B839C83AD83BE83C501BE014B
:1047F0006F5F7F4F45E350E00E94BB128C01009732
:1048000009F1C601B7010E94F0228C010097D1F096
:10481000C5010E94B6128C010097A1F0EE24FF247E
:10482000C60168E873E1A4010E9486218C01089406
:10483000E11CF11CF3E0EF16F10421F08FEF0F3FC4
:10484000180771F3C5010E944A13C80126960FB6D6
:10485000F894DEBF0FBECDBFCF91DF911F910F91B6
:10486000FF90EF90DF90CF90BF90AF909F908F9090
:10487000089508951F920F920FB60F9211242F934F
:104880003F934F938F939F93EF93FF938091C0003B
:1048900082FD1DC04091C60020914506309146061C
:1048A0002F5F3F4F2F7330708091470690914806DD
:1048B0002817390771F0E0914506F0914606EB5F45
:1048C000F94F4083309346062093450602C08091FD
:1048D000C600FF91EF919F918F914F913F912F9142
:1048E0000F900FBE0F901F901895E0919906F091D0
:1048F0009A06E05CFF4F8191919120813181821B6A
:10490000930B8F739070892B11F00E9439240895B6
:104910001F920F920FB60F9211242F933F938F93F4
:104920009F93EF93FF932091890630918A0680919F
:104930008B0690918C062817390731F48091C100BD
:104940008F7D8093C10014C0E0918B06F0918C069E
:10495000E75BF94F208180918B0690918C06019640
:104960008F73907090938C0680938B062093C60073
:10497000FF91EF919F918F913F912F910F900FBEDB
:104980000F901F901895AF92BF92DF92EF92FF9217
:104990000F931F93CF93DF93EC017A018B01DD24FA
:1049A000403081EE580780E0680780E0780711F01A
:1049B000DD24D39491E0A92EB12CEC89FD89DD2072
:1049C00069F0C50108A002C0880F991F0A94E2F798
:1049D000808360E079E08DE390E005C0108260E8BC
:1049E00074E88EE190E0A80197010E947B2A215093
:1049F000304040405040569547953795279580E187
:104A00002030380720F0DD2011F0DD24D6CFE889F2
:104A1000F9893083EA89FB89208319A2EE89FF890D
:104A2000408121E030E0C9010C8C02C0880F991F41
:104A30000A94E2F7482B4083EE89FF894081C9013F
:104A40000D8C02C0880F991F0A94E2F7482B40830F
:104A5000EE89FF894081C9010E8C02C0880F991F21
:104A60000A94E2F7482B4083EE89FF8980810F8CFE
:104A700002C0220F331F0A94E2F7209528232083D7
:104A8000DF91CF911F910F91FF90EF90DF90BF903A
:104A9000AF900895DC011C96ED91FC911D97E05CB0
:104AA000FF4F2191319180819181281B390B2F7308
:104AB0003070C9010895DC011C96ED91FC911D97A1
:104AC000E05CFF4F20813181E054F040DF01AE5BBC
:104AD000BF4F8D919C9111972817390719F42FEF2B
:104AE0003FEF07C08D919C91E80FF91F8081282F1F
:104AF00030E0C9010895DC011C96ED91FC911D97F1
:104B0000E05CFF4F20813181E054F040DF01AE5B7B
:104B1000BF4F8D919C9111972817390719F42FEFEA
:104B20003FEF10C08D919C911197E80FF91F2081E4
:104B30008D919C91119701968F73907011969C9313
:104B40008E9330E0C9010895DC0191968C91919784
:104B5000882339F05496ED91FC915597808186FF1A
:104B6000F9CF91961C920895CF93DF93EC01EE85D7
:104B7000FF85E05CFF4F20813181E054F0402F5FE2
:104B80003F4F2F733070DF01AE5BBF4F8D919C9113
:104B9000119728173907D1F3E05CFF4F808191818D
:104BA000E054F040E80FF91F6083EE85FF85E05C7C
:104BB000FF4F31832083EE89FF89208181E090E0DF
:104BC0000F8C02C0880F991F0A94E2F7282B2083CC
:104BD00081E089A3EC89FD8980818064808381E004
:104BE00090E0DF91CF9108951092900610928F0679
:104BF00088EE93E0A0E0B0E0809391069093920657
:104C0000A0939306B093940688EF92E090938E065B
:104C100080938D0685E096E090939A06809399069E
:104C200089E496E090939C0680939B0685EC90E047
:104C300090939E0680939D0684EC90E09093A0064E
:104C400080939F0680EC90E09093A2068093A1064B
:104C500081EC90E09093A4068093A30682EC90E010
:104C60009093A6068093A50686EC90E09093A80604
:104C70008093A70684E08093A90683E08093AA0628
:104C800087E08093AB0685E08093AC0681E080935B
:104C9000AD0608950F93FC0188E093E09183808333
:104CA00062834383248305830F91089588E093E012
:104CB0009093B0068093AF061092B1061092B206A0
:104CC0001092B3061092B40608958F929F92AF92FD
:104CD000BF92CF92DF92EF92FF920F931F93CF93E9
:104CE000DF934C016B017C01AA24BB24C0E0D0E01F
:104CF000C601F70162814AE050E00E94FF278C0163
:104D0000C6016EE20E941627080F191FA00EB11EE1
:104D100021960894E11CF11CC330D10549F7C60166
:104D2000F40165814AE050E00E94FF279501280FB9
:104D3000391FC901DF91CF911F910F91FF90EF9023
:104D4000DF90CF90BF90AF909F908F9008959C017F
:104D5000FB0180819181A281B381F90182839383D8
:104D6000A483B583C90108959C01FB0188E093E009
:104D7000D9018D939C9380819181A281B381F901A6
:104D800082839383A483B5830895FC0188E093E034
:104D90009183808312821382148215820895CF93A7
:104DA000DF930E943B290E94280BC5E7D4E20E94B2
:104DB000DE0A2097E1F30E947524F9CFFC0120E080
:104DC00030E08081882311F421E030E0C9010895AA
:104DD000FC0181E080830895CF92DF92EF92FF92F1
:104DE0000F931F93CF93DF937C016B018A01C0E087
:104DF000D0E00FC0D6016D916D01D701ED91FC910E
:104E00000190F081E02DC7010995C80FD91F01500D
:104E100010400115110571F7CE01DF91CF911F915F
:104E20000F91FF90EF90DF90CF900895DC01ED910E
:104E3000FC910190F081E02D09950895EF92FF9289
:104E40000F931F938C01DC01ED91FC910190F08197
:104E5000E02D6DE009957C01D801ED91FC91019068
:104E6000F081E02DC8016AE009959C012E0D3F1DDF
:104E7000C9011F910F91FF90EF900895EF92FF925B
:104E80000F931F937C01DC01ED91FC910190F08167
:104E9000E02D09958C01C7010E941E27080F191FDC
:104EA000C8011F910F91FF90EF900895EF92FF922C
:104EB0000F931F937C01DB01ED91FC910190F08138
:104EC000E02DCB01B70109958C01C7010E941E2777
:104ED000080F191FC8011F910F91FF90EF900895BF
:104EE000CF93DF93EC016115710519F420E030E0F8
:104EF0000FC0DB010D900020E9F71197A61BB70B3F
:104F0000E881F9810280F381E02DAD0109959C01D2
:104F1000C901DF91CF9108954F925F927F928F9256
:104F20009F92AF92BF92CF92DF92EF92FF920F9338
:104F30001F93DF93CF93CDB7DEB7A1970FB6F89449
:104F4000DEBF0FBECDBF2C01742ECB01223008F482
:104F50002AE019A231E2C32ED12CCC0EDD1E822E06
:104F60009924AA24BB24672D752FA50194010E94C2
:104F70007B2A79018A01C801B701A50194010E9429
:104F80005C2A472D461B0894C108D1084A3014F406
:104F9000405D01C0495CF6014083E114F104010564
:104FA000110521F07E2C5F2DC801DDCFC201B601B5
:104FB0000E947027A1960FB6F894DEBF0FBECDBF3A
:104FC000CF91DF911F910F91FF90EF90DF90CF90E5
:104FD000BF90AF909F908F907F905F904F9008957B
:104FE000DC012115310541F4ED91FC910190F08136
:104FF000E02D642F099508950E948C270895EF9263
:10500000FF920F931F939A01E62EFF2400E010E019
:10501000B801A7010E94F0271F910F91FF90EF9018
:105020000895CF92DF92EF92FF920F931F93CF9349
:10503000DF93EC016A017B012115310541F4E88120
:10504000F9810190F081E02D642F09951FC02A306D
:105050003105D1F477FF17C0E881F9810190F08123
:10506000E02D6DE209958C0144275527BA014C19B2
:105070005D096E097F09CE012AE00E948C27980104
:10508000280F391F04C02AE00E948C279C01C90107
:10509000DF91CF911F910F91FF90EF90DF90CF9014
:1050A0000895EF92FF920F931F937B019A010027BF
:1050B000F7FC0095102FB801A7010E9411281F913D
:1050C0000F91FF90EF900895CF92DF92EF92FF92B1
:1050D0000F931F936C017B019A010027F7FC009549
:1050E000102FB801A7010E9411288C01C6010E944F
:1050F0001E27080F191FC8011F910F91FF90EF90F5
:10510000DF90CF9008950E9470270895EF92FF924C
:105110000F931F937C010E9470278C01C7010E948E
:105120001E27080F191FC8011F910F91FF90EF90C4
:1051300008951F920F920FB60F9211242F933F9351
:105140008F939F93AF93BF938091B9069091BA06C6
:10515000A091BB06B091BC063091BD060196A11D81
:10516000B11D232F2D5F2D3720F02D570196A11D46
:10517000B11D2093BD068093B9069093BA06A09303
:10518000BB06B093BC068091B5069091B606A0917F
:10519000B706B091B8060196A11DB11D8093B50662
:1051A0009093B606A093B706B093B806BF91AF919F
:1051B0009F918F913F912F910F900FBE0F901F9055
:1051C00018958FB7F8942091B9063091BA0640919E
:1051D000BB065091BC068FBFB901CA0108959FB7A5
:1051E000F8942091B5063091B6064091B7065091DB
:1051F000B80686B5A89B06C08F3F21F02F5F3F4FB2
:105200004F4F5F4F9FBF542F432F322F2227280F1E
:10521000311D411D511D82E0220F331F441F551FB8
:105220008A95D1F7B901CA010895EF92FF920F93C1
:105230001F93CF93DF937B018C010E94EF28EB013A
:105240000EC00E94EF286C1B7D0B685E7340C8F394
:105250000894E108F10801091109C851DC4FE11473
:10526000F1040105110569F7DF91CF911F910F91AD
:10527000FF90EF900895789484B5826084BD84B5E2
:10528000816084BD85B5826085BD85B5816085BD41
:10529000EEE6F0E0808181608083E1E8F0E010825A
:1052A000808182608083808181608083E0E8F0E09B
:1052B000808181608083E1EBF0E080818460808385
:1052C000E0EBF0E0808181608083EAE7F0E08081BC
:1052D000846080838081826080838081816080831C
:1052E0008081806880831092C1000895CF93DF93FE
:1052F000482F50E0CA0186569F4FFC0134914A570F
:105300005F4FFA018491882369F190E0880F991F1B
:10531000FC01E859FF4FA591B491FC01EE58FF4FF5
:10532000C591D491662351F42FB7F8948C91932FA3
:10533000909589238C93888189230BC0623061F416
:105340002FB7F8948C91932F909589238C93888113
:10535000832B88832FBF06C09FB7F8948C91832B33
:105360008C939FBFDF91CF910895833071F084308B
:1053700028F48130A1F0823021F514C08630B1F0DC
:105380008730D1F08430E9F404C0809180008F77B9
:1053900003C0809180008F7D80938000089584B544
:1053A0008F7702C084B58F7D84BD08958091B00051
:1053B0008F778093B00008958091B0008F7D8093A7
:1053C000B0000895FF920F931F93F62E482F50E0E0
:1053D000CA0182559F4FFC012491CA0186569F4FF6
:1053E000FC0114914A575F4FFA0104910023C9F060
:1053F000222319F0822F0E94B529E02FF0E0EE0F52
:10540000FF1FEE58FF4FA591B4919FB7F894FF206E
:1054100021F48C911095812302C08C91812B8C9367
:105420009FBF1F910F91FF90089570E0382F20E0EB
:10543000622B732BCB010895EF92FF920F931F9372
:105440007B018C01611571058105910529F420E02E
:1054500030E040E050E00BC00E94E800A801970156
:105460000E949D2AAC01CB01DA019C01AD01B9017A
:10547000CA011F910F91FF90EF900895EF92FF9254
:105480000F931F937B018C016217730784079507A5
:1054900064F4261B370B480B590BCA01B9010E9453
:1054A0001C2AE60EF71E081F191FB701C8011F911D
:1054B0000F91FF90EF900895629FD001739FF001CC
:1054C000829FE00DF11D649FE00DF11D929FF00D94
:1054D000839FF00D749FF00D659FF00D9927729FCB
:1054E000B00DE11DF91F639FB00DE11DF91FBD0156
:1054F000CF0111240895A1E21A2EAA1BBB1BFD01A6
:105500000DC0AA1FBB1FEE1FFF1FA217B307E407A2
:10551000F50720F0A21BB30BE40BF50B661F771FFA
:10552000881F991F1A9469F76095709580959095DA
:105530009B01AC01BD01CF01089597FB092E052603
:105540000ED057FD04D0D7DF0AD0001C38F4509598
:105550004095309521953F4F4F4F5F4F0895F6F797
:1055600090958095709561957F4F8F4F9F4F0895CF
:10557000EE0FFF1F0590F491E02D09942F923F92BA
:105580004F925F926F927F928F929F92AF92BF9253
:10559000CF92DF92EF92FF920F931F93CF93DF93FF
:1055A000CDB7DEB7CA1BDB0B0FB6F894DEBF0FBE5C
:1055B000CDBF09942A88398848885F846E847D84A9
:1055C0008C849B84AA84B984C884DF80EE80FD80AB
:1055D0000C811B81AA81B981CE0FD11D0FB6F89421
:0E55E000DEBF0FBECDBFED010895F894FFCFE2
:1055EE006D616300300A004F4B00556E6B6E6F7726
:1055FE006E20636F6D6D616E6400476F7420612065
:10560E00636C69656E74005374617274696E6720A1
:10561E0073656E64696E67005765206172652061FF
:10562E006C69766520004661696C656420746F2034
:10563E00636F6E6669677572652045746865726E14
:10564E006574207573696E67204448435000636F1C
:10565E006E6E656374696E672E2E2E00736572769C
:10566E006572206973206174200057495A6E657403
:10567E0000010000003275FF0004696E69745F63FB
:10568E0000000000000000000000696E69745F6396
:10569E005F616C6C000000000000746573745F63E2
:1056AE0000000000000000000000746573745F636A
:1056BE005F616C6C0000000000006F70656E5F63D0
:1056CE00000000000000000000006F70656E5F6358
:1056DE005F616C6C000000000000636C6F73655FAF
:1056EE0063000000000000000000636C6F73655FD4
:1056FE00635F616C6C0000000000737461747573FD
:10570E005F63000000000000000073746174757325
:10571E005F635F616C6C000000006D61635F63002E
:10572E0000000000000000000000706F72745F63E4
:10573E00000000000000000000007265626F6F74D0
:10574E005F63000000000000000069735F635F6329
:10575E006C6F736564000000000069735F635F6FB8
:10576E0070656E6564000000000069735F635F73AF
:10577E007563736573730000000000000000CB0DAD
:10578E00D40EC60EAA0E800EE30DF20E680FA50EF5
:10579E003E0E1A0EFA0D00000000E20F67103E11C9
:1057AE0000000000A9119B12A5111C12DE11C111DF
:1057BE005F134A13BB12DA12B6124712F91188118F
:1057CE009011A111000000007918481801180A184C
:1057DE001F18301800000000B425EC264A257B2542
:0A57EE005B25A425000000006526DD
:00000001FF
